:020000040800F2
:1000000080C40020290300080D5A0008E9460008B2
:10001000095A0008290E00088D6E00080000000033
:10002000000000000000000000000000690200085D
:10003000A311000800000000C50200083963000891
:100040004303000843030008430300084303000878
:100050004303000843030008A511000843030008F8
:1000600043030008AF110008B9110008430300085A
:100070004303000843030008430300084303000848
:100080004303000843030008430300084303000838
:100090002D0E00084303000843030008C3110008A5
:1000A0004303000843030008430300084303000818
:1000B0004303000843030008430300084303000808
:1000C00043030008430300084303000843030008F8
:1000D00043030008356C000843030008456C000822
:1000E00043030008430300084303000843030008D8
:1000F000430300084303000843030008390F0008C6
:1001000043030008430300084303000843030008B7
:1001100043030008430300084303000843030008A7
:1001200043030008B50F0008C50F0008430300088B
:100130004303000843030008430300084303000887
:100140003D0E000843030008430300084303000872
:1001500095100008A5100008B5100008696D00088A
:100160004303000843030008430300084303000857
:100170004303000843030008430300080000000095
:10018000430300084303000800F002F800F05CF8A5
:100190000AA090E8000C82448344AAF10107DA45E2
:1001A00001D100F051F8AFF2090EBAE80F0013F0D8
:1001B000010F18BFFB1A43F0010318478CE0000041
:1001C000ACE000000A444FF0000C10F8013B13F0C3
:1001D000070408BF10F8014B1D1108BF10F8015BA0
:1001E000641E05D010F8016B641E01F8016BF9D193
:1001F00013F0080F1EBF10F8014BAD1C0C1B09D1EA
:100200006D1E58BF01F801CBFAD505E014F8016B5B
:1002100001F8016B6D1EF9D59142D6D370470000ED
:100220000023002400250026103A28BF78C1FBD8FF
:10023000520728BF30C148BF0B6070471FB50DF093
:100240006BF81FBD10B510BD00F091FA1146FFF715
:10025000F5FF08F071FF00F0AFFA03B4FFF7F2FF0B
:1002600003BC00F0BFFA00002C4B19680868B0E826
:10027000F04F80F30988BFF36F8F4FF0000080F3D9
:10028000118870470000000008480068006880F38B
:1002900008884FF0000080F3148862B661B6BFF39F
:1002A0004F8FBFF36F8F00DF00BF00BF08ED00E08E
:1002B000DFF80C00016841F470010160704700BF75
:1002C00088ED00E0EFF30980BFF36F8F134B1A68DE
:1002D0001EF0100F08BF20ED108A20E9F04F1060CB
:1002E00009B44FF0500080F31188BFF34F8FBFF374
:1002F0006F8F0BF031F84FF0000080F3118809BCCC
:1003000019680868B0E8F04F1EF0100F08BFB0EC95
:10031000108A80F30988BFF36F8F70473400002084
:10032000EFF30580704700000948804709480047FF
:10033000FEE7FEE7FEE7FEE7FEE7FEE7FEE7FEE795
:10034000FEE7FEE704480549054A064B70470000F2
:1003500001640008890100088084002080C4002016
:1003600080A4002080A400209FED1A1AF5EE000A58
:1003700040EE010ABDEEE00AF5EEC00A10EE100AEA
:10038000F1EE10FA38BF401E00EE100A1349F7EEE6
:10039000001AB8EEC00A30EEC00ADFED0F0A20EEF8
:1003A000200AFCEEC00A10EE900AC0F3080000EE2E
:1003B000900A01EB8000F8EE600A90ED011A70EEF1
:1003C000600A90ED000A71EEE01A21EE800A00EE5C
:1003D000810A704783F9223E0000004408DA0008D1
:1003E000DFED190AB5EEC00A60EE200ABDEEE01A94
:1003F00011EE100AF1EE10FA38BF401E00EE100A9E
:100400001349F7EE001AB8EEC00A30EEC00ADFED6D
:100410000F0A60EE200ABCEEE00A10EE100AC0F3EC
:10042000080000EE100A01EB8000B8EE400A90EDE3
:10043000011A70EEC00A90ED000A71EEE01A21EE8A
:10044000800A00EE810A704783F9223E00000044D2
:1004500008DA000853EA020C00F069802DE9F04B3D
:100460004FF00006002B1FBFB3FA83F503FA05F423
:1004700024FA05F65E4012BF1643B2FA82F502FA7C
:1004800005F4C5F120051EBF22FA05FC44EA0C0460
:10049000203556EA044C4FEA144418BF641C4FF050
:1004A00000084FF00009904271EB030C39D300298A
:1004B00019BFB1FA81F701FA07F6B0FA80F700FA2E
:1004C00007F6C7F120071EBF20FA07FC46EA0C0614
:1004D0002037B6FBF4FCA7EB0507103F07F01F0B16
:1004E000CBF120060CFA0BFB2CFA06F644BFB34600
:1004F0000026202FA4BF5E464FF0000B5BEA060CDF
:1005000008BF4FF0010B19EB0B09ABFB027C48EB6A
:100510000608C01B06FB02CC0BFB03CC71EB0C01E5
:10052000C1E70B46024641464846BDE8F08B13B58D
:100530004FF000004FF00001AFF30080BDE81C4019
:10054000704710B5431C02E010F8011B71B1810720
:10055000FAD14FF0013202C88C1A8C4314EAC2114E
:10056000F9D0C01A0A0603D0C01E10BDC01A10BDB3
:100570000A0401D0801E10BD0902FCD0401E10BD2F
:10058000032A40F2308010F0030C00F0158011F8BF
:10059000013BBCF1020F624498BF11F801CB00F897
:1005A000013B38BF11F8013BA2F1040298BF00F8EB
:1005B00001CB38BF00F8013B11F0030300F02580A8
:1005C000083AC0F0088051F8043B083A51F804CBCF
:1005D000A0E80810F5E7121D5CBF51F8043B40F895
:1005E000043BAFF30080D20724BF11F8013B11F8A0
:1005F00001CB48BF11F8012B24BF00F8013B00F8E4
:1006000001CB48BF00F8012B704710B5203AC0F06D
:100610000B80B1E81850203AA0E81850B1E8185003
:10062000A0E81850BFF4F5AF5FEA027C24BFB1E840
:100630001850A0E8185044BF18C918C0BDE81040B1
:100640005FEA827C24BF51F8043B40F8043B08BFBA
:100650007047D20728BF31F8023B48BF11F8012B81
:1006600028BF20F8023B48BF00F8012B704702F07A
:10067000FF0343EA032242EA024200F002B84FF0CD
:1006800000020429C0F0128010F0030C00F01B805F
:10069000CCF1040CBCF1020F18BF00F8012BA8BF6D
:1006A00020F8022BA1EB0C0100F00DB85FEAC17C31
:1006B00024BF00F8012B00F8012B48BF00F8012BE4
:1006C00070474FF0000200B5134694469646203915
:1006D00022BFA0E80C50A0E80C50B1F12001BFF4FB
:1006E000F7AF090728BFA0E80C5048BF0CC05DF861
:1006F00004EB890028BF40F8042B08BF704748BFAF
:1007000020F8022B11F0804F18BF00F8012B704722
:1007100070477047704710B500F00CF8006810BDC6
:1007200010B5044600F006F8046010BD004870479C
:100730001C840020004870471C8400201FB584B032
:1007400000200A9C06AB04AA02A90094AFF3008023
:1007500018B1DDE9020108B010BD0348204000F0E7
:1007600039F800200146F6E70000207C7047754606
:10077000FFF7DCFFAE4605006946534620F0070050
:10078000854618B020B5FFF7DDFDBDE820404FF0ED
:1007900000064FF000074FF000084FF0000B21F06B
:1007A0000701AC46ACE8C009ACE8C009ACE8C00938
:1007B000ACE8C0098D46704710B50446AFF3008021
:1007C0002046BDE81040FFF748BD002801D000F0EA
:1007D00009B8704710B500F025F8BDE81040FFF7E4
:1007E000F4BF000001491820ABBEFEE7260002005E
:1007F00070B505460C460A2000E06D1C00F068F854
:1008000035B128780028F8D102E0641C00F060F8C7
:1008100014B120780028F8D1BDE870400A2000F01B
:1008200057B8000010B5022803D0410103D50DA12F
:1008300012E0002010BD010101D50FA10CE0C100A4
:1008400001D511A108E0810001D512A104E040000A
:1008500001D513A100E0002115A0FFF7C9FF012079
:1008600010BD0000496E76616C6964204F7065723E
:100870006174696F6E0000004469766964652042A6
:1008800079205A65726F00004F766572666C6F77DB
:1008900000000000556E646572666C6F77000000A2
:1008A000496E657861637420526573756C740000DD
:1008B0005349474650453A2041726974686D6574E2
:1008C000696320657863657074696F6E3A20000013
:1008D00008B569468DF800000320ABBE08BD0000D6
:1008E00055494A6822F440324A604A6843681A43CC
:1008F0004A600268526822F4807203685A60026893
:100900005368026943EA022203685A600268526827
:1009100022F0407203685A600268526883681A4382
:1009200003685A600268926822F4006203689A6061
:1009300002689268C3681A4303689A603F4B826AF0
:100940009A4218D00268926822F0706203689A6036
:1009500002689268836A1A4303689A600268926820
:1009600022F0405203689A6002689268C36A1A4390
:1009700003689A600BE00268926822F07062036874
:100980009A600268926822F0405203689A60026896
:10099000926822F0020203689A6002689368027EFD
:1009A00043EA420203689A602022125CA2B1026804
:1009B000526842F4006203685A600268526822F486
:1009C000604203685A6002685368426A521E43EAF2
:1009D000423203685A6005E00268526822F40062FD
:1009E00003685A600268D26A22F470020368DA620D
:1009F0000268D36A828B521E43EA02520368DA62AB
:100A00000268926822F4007203689A600268936830
:100A100090F8302043EA422203689A6002689268A4
:100A200022F4806203689A6002689368426943EA2C
:100A3000822203689A607047002301400100000F82
:100A4000B7EE000A80ED000A9FED060A80ED010A6C
:100A50009FED040A80ED020A9FED020A80ED030A71
:100A6000704700000000000010B50122102102486C
:100A700001F03CFE10BD00000000024010B5002255
:100A80001021024801F032FE10BD000000000240BB
:100A90007047000010B501221146024801F026FE01
:100AA00010BD00000004024010B5002201210248E0
:100AB00001F01CFE10BD00000004024010B5437898
:100AC0001B021BB20478234300EE103AB8EEC01AA2
:100AD0001C4BD3ED001A21EE211A81ED001AC378C8
:100AE0001B021BB28478234300EE103AB8EEC01A02
:100AF000144BD3ED001A21EE211A81ED011A43792E
:100B00001B021BB20479234300EE103AB8EEC01A60
:100B10000C4BD3ED001A21EE211A81ED021A037A53
:100B20001B04C47943EA04238479234300EE903AFA
:100B3000B8EE601ADFED041A21EE211A82ED001AD8
:100B400010BD0000A800002000401C42704710B5F6
:100B50000446204608F05DFB10BD10B50446204653
:100B600007F0E2FB10BD00004278120212B20378D7
:100B70001A4300EE102AF8EEC00A144A92ED001A49
:100B800060EE810AC1ED000AC278120212B28378C7
:100B90001A4300EE102AF8EEC00A0C4A92ED001A31
:100BA00060EE810AC1ED010A4279120212B20379A4
:100BB0001A4300EE102AF8EEC00A044A92ED001A19
:100BC00060EE810AC1ED020A70470000AC0000200F
:100BD00010B50024FFF75CFFFFF7B8FF06F020FC1C
:100BE00010B144F0800402E006F080FB044306F0FC
:100BF00015FE10B144F0400402E006F095FD0443F8
:100C0000204610BD2DE9FC4105460E461746002042
:100C100000900190FFF732FF922000F0D1F80622F9
:100C20006946122000F0ACF8FFF71EFF9DF80100A6
:100C3000000200B29DF8001040EA010400EE104AE4
:100C4000B8EEC00A4C48D0ED000A20EE200A86ED2E
:100C5000000A9DF80300000200B29DF8021040EA6D
:100C6000010400EE104AB8EEC00A4348D0ED000A75
:100C700020EE200A86ED010A9DF80500000200B270
:100C80009DF8041040EA010400EE104AB8EEC00AD4
:100C90003948D0ED000A20EE200A86ED020AFFF75F
:100CA00003FF08226946002000F06AF8FFF7F2FE11
:100CB0009DF800000F2838D19DF80300000200B213
:100CC0009DF8021040EA010400EE104AB8EEC00A96
:100CD0002A48D0ED000A20EE200A85ED000A9DF892
:100CE0000500000200B29DF8041040EA010400EE85
:100CF000104AB8EEC00A2148D0ED000A20EE200AC2
:100D000085ED010A9DF80700000200B29DF806106B
:100D100040EA010400EE104AB8EEC00A1748D0EDD0
:100D2000000A20EE200A85ED020AFFF7A7FEA220A6
:100D300000F046F802226946222000F021F8FFF771
:100D400093FE9DF80000C0009DF8011040EA611478
:100D5000B4F5806F02DBA4F5006004B200EE104A27
:100D6000F8EEC00AB4EE001AB3EE070A00EE810AEC
:100D700087ED000ABDE8FC81A8000020AC0000203F
:100D800070B506460C46154646F0800000F018F88F
:100D900006E0552000F014F82070641C681EC5B2EF
:100DA000002DF6D170BD70B504460D4644F08000AC
:100DB00000F006F8552000F003F8287070BD000020
:100DC00001B582B04FF47A70012301AA02A9009004
:100DD000024802F085FD9DF804000EBD000B0020C6
:100DE00010B502461378DB00547843EA6410B0F57E
:100DF000806F02DBA0F5006318B200EE100AF8EE77
:100E0000C00AB4EE001AB3EE070A00EE810A81EDC3
:100E1000000A10BD70B505460C462846FFF7D0FF06
:100E20002046FFF7CDFF70BD00BFFEE710B50248BA
:100E300000F031FD10BD00002409002010B502486B
:100E400000F029FD10BD00004C090020F8B5074650
:100E50000C4615461E464FF400700D4908600020F0
:100E60008860C86008200861380A0A4908704F7015
:100E7000200A8870CC70280A08714D71300A887178
:100E8000CE716B460A460249034800F008FBF8BDE4
:100E90003C7400207401002024090020F8B50646A7
:100EA0000C46154640F2FF100D490860002088608E
:100EB000C86008200861300A0A4908704E70200A8C
:100EC0008870CC70280A08714D7100208871C87133
:100ED0006B460A460249044800F0E1FAF8BD0000FA
:100EE000547400207C0100204C09002038B50546D0
:100EF0000C4640F2FF100D49086000208860C86071
:100F000008200861280A0A4908704D70200A887074
:100F1000CC700020087148718871C8716B460A4610
:100F20000249044800F0BBFA38BD000024740020D8
:100F30006C010020240900201B48406800F000607C
:100F400080B31A48406B00681949884205D94FF0B0
:100F5000006017494C3908601CE01448406B006879
:100F60001149B831884205D94FF000601049503915
:100F700008600FE00D48406B00680B49583188420B
:100F800004D94FF000600849C86003E04FF00060EA
:100F90000549886005480068006840F4007003490E
:100FA000096808607047000000600240C80900201E
:100FB0005864024010B5024801F0ACF810BD0000C2
:100FC000D00F002010B52C48006800F40010002855
:100FD00050D04FF0F4602849083108602748007865
:100FE00000F0020078B12548007820F00200234983
:100FF00008700846007840F004000870012211468D
:101000001F4801F073FB1F48007800F0020078B120
:101010001C48007820F002001A4908700846007841
:1010200040F00400087001221021174801F05EFB17
:101030001648007800F0020078B11448007820F0DB
:101040000200124908700846007840F00400087059
:10105000012210210C4801F049FB07F0B7FE0748B8
:10106000007800F0040028B10948006840F0010051
:101070000749086010BD000000640240FD00002028
:1010800000040240FE00002000000240FF0000209B
:10109000103C014010B5024801F03CF810BD0000C2
:1010A000100F002010B5024801F034F810BD000008
:1010B0003010002010B5024801F02CF810BD0000DF
:1010C000B00E00200146087810381823B0FBF3F268
:1010D0000848805CC865032A05D908686FF30900D1
:1010E000001D886503E008686FF309008865886D56
:1010F0007047000040D60008014600208A6A8B69CC
:10110000CBB932B1012A0DD0022A03D0032A10D163
:101110000EE000BFCB6A03F08073B3F1807F00D193
:10112000012007E0CB6AB3F1C07F00D1012001E0CC
:1011300000E000BF34E08B69B3F5005F1AD132B133
:10114000012A07D0022A03D0032A11D10AE000BFE6
:1011500001200EE0CB6A03F08073B3F1807F00D1F1
:10116000012006E0CB6AB3F1C07F00D1012000E08E
:1011700000BF15E032B1012A05D0022A04D0032AAB
:101180000CD103E000BF00BF012008E0CB6A03F0F0
:101190008073B3F1807F00D1012000E000BF00BF69
:1011A0007047704710B5012001F092F910BD10B5DD
:1011B000082001F08DF910BD10B5102001F088F95C
:1011C00010BD10B5202001F083F910BD72B600BF2C
:1011D000FEE7000038B502460020009000BF92F8FC
:1011E0003C00012801D1022038BD012082F83C00DA
:1011F00000BF0868092816D91068C0680C780A3C36
:1012000004EB44050724AC40A0431468E0600C786C
:101210000A3C04EB44048868A0401468E468204356
:101220001468E06013E0106800690C7804EB440572
:101230000724AC40A043146820610C7804EB4404FC
:101240008868A040146824692043146820614868B5
:10125000072817D21068406B0C79641E04EB8405D4
:101260001F24AC40A04314686063088880B20C79E6
:10127000641E04EB8404A0401468646B204314686B
:10128000606331E048680D2817D21068006B0C7954
:10129000E41F04EB84051F24AC40A04314682063C2
:1012A000088880B20C79E41F04EB8404A040146821
:1012B000246B20431468206316E01068C06A0C7920
:1012C0000D3C04EB84051F24AC40A0431468E0628D
:1012D000088880B20C790D3C04EB8404A0401468AB
:1012E000E46A20431468E062194B1A4C1068A0426B
:1012F00006D10868122803D1586840F4800058606D
:10130000144C1068A0421CD10868102802D008684C
:10131000112816D1586840F4000058600868102859
:101320000FD10D4800680D4CB0FBF4F000EB8000CD
:101330004000009002E00098401E009000980028B5
:10134000F9D100BF002082F83C0000BF00BF4BE78E
:1013500000230140002001403000002040420F00E7
:1013600070B5044600250CB9012070BD1549A06A6E
:10137000884200D000BF206C30B9204600F024F82D
:101380000020606484F83C00206C00F0100088B9F4
:10139000206C20F4885040F0020020642046FFF7C3
:1013A0009FFA00206064206C20F0020040F00100F1
:1013B000206400E0012500BF002084F83C0000BF4D
:1013C0002846D2E70100000F10B586B0044614216C
:1013D00001A8FFF776F92349206888420FD100BFA2
:1013E000002000902048006840F480701E4908608A
:1013F0000846006800F48070009000BF2FE01B4991
:10140000206888422BD100BF002000901648006859
:1014100040F48060144908600846006800F4806069
:10142000009000BF00BF00BF002000900E4814389D
:10143000006840F020000C49143908600846006834
:1014400000F02000009000BF00BF081501900320AD
:1014500002900020039001A9054801F047F806B06A
:1014600010BD00000020014044380240002201402D
:101470000014024010B5024692F82030012B01D032
:10148000022B06D11068406908431468606100208F
:1014900010BD506A40F4802050620120F8E7F0B59A
:1014A00004460D461E4694F8207020688368A8689C
:1014B00000B900E000BF012F01D0022F7CD103F062
:1014C000806030B903F0006018B903F08050002844
:1014D00073D0C3F30161022905D9606A40F40000AA
:1014E00060620120F0BD012088403060A86860B9CA
:1014F000B5F800C0E86840EA4C5C206800F5C070B0
:1015000000EB0110C0F800C00FE0D5E901C040EACF
:10151000CC00D5F80CC040EA0C00D4F800C00CF5A3
:10152000C07C0CEB011CCCF80000D5F810C0206882
:1015300000F5C07000EB0110C0F804C0287D012840
:101540000ED1206800F5C07000EB0110406840F437
:10155000807C206800F5C07000EB0110C0F804C06A
:10156000D079000692F806C040EA0C4092F805C017
:1015700040EA0C2C10794CEA000C206800F5C07091
:1015800000EB0110C0F80CC0D078000692F802C041
:1015900040EA0C4092F801C040EA0C2092F800C0EA
:1015A00040EA0C00D4F800C00CF5C07C0CEB011C28
:1015B000CCF80800206801E016E00FE000F5C070EC
:1015C00000EB0110006840F0010C206800F5C070CD
:1015D00000EB0110C0F800C0002083E7606A40F40F
:1015E0000010606201207DE7606A40F48020606244
:1015F000012077E7F0B504460A46216894F82050A8
:10160000012D01D0022D7ED1424901F500710868FB
:1016100040F001000860086820F47C500860086809
:10162000566A40EA06200860107D00F01F0601207F
:1016300000FA06F3C8699843C861A1F50071D06942
:10164000C8B9D1F80C029843C1F80C02908880B256
:10165000968940EA064601F51070576940F83760F0
:10166000108880B2168940EA064601F51070576965
:1016700000EBC7004660D069012819D1D1F80C02EF
:101680001843C1F80C02908880B2168840EA0646DA
:1016900001F51070576940F83760908980B216895B
:1016A00040EA064601F51070576900EBC700466036
:1016B000906928B9D1F804029843C1F8040204E003
:1016C000D1F804021843C1F80402106928B9D1F80E
:1016D00014029843C1F8140204E0D1F8140218432C
:1016E000C1F81402106A012804D1D1F81C02184371
:1016F000C1F81C02D1F8000220F00100C1F800027C
:101700000020F0BDFFE7606A40F4802060620120A5
:10171000F7E7000000640040704770B5044694F895
:101720002050012D01D0022D7CD151B92068C06814
:1017300000F0030080B9606A40F40010606201208C
:1017400070BD2068006900F0030028B9606A40F4A9
:10175000001060620120F3E7206800F5D87000EB0C
:101760000110006800F004009060906840B92068A3
:1017700000F5D87000EB01100068400D106007E024
:10178000206800F5D87000EB01100068C0085060B8
:10179000206800F5D87000EB0110006800F002002E
:1017A0004008D060206800F5D87000EB0110406858
:1017B00000F00F001061206800F5D87000EB0110F8
:1017C000406800F47F40000A9061206800F5D870FE
:1017D00000EB01104068000C5061206800F5D870E3
:1017E00000EB011080681870206800F5D87000EBDD
:1017F0000110806800F47F40000A5870206800F5EE
:10180000D87000EB0110806800F47F00000C987025
:10181000206800F5D87000EB01108068000ED870C9
:10182000206800E031E000F5D87000EB0110C068DE
:101830001871206800F5D87000EB0110C06800F442
:101840007F40000A5871206800F5D87000EB011045
:10185000C06800F47F00000C9871206800F5D87013
:1018600000EB0110C068000ED87131B92068C06863
:1018700040F020002668F06005E02068006940F034
:1018800020002668306100205AE7606A40F480201A
:101890006062012054E72DE9F05F044600252068CE
:1018A00046692068D0F80490206887682068D0F8DE
:1018B0000CA02068D0F810B02068D0F8188006F08E
:1018C0000100002855D007F00100C0B101202168B7
:1018D000886007F0020018B1204600F0D4FB0EE04B
:1018E00007F0040010B145F4006508E007F00800B7
:1018F00010B145F4805502E0204600F0C3FB07F428
:101900008070C8B14FF480702168886007F400705F
:1019100018B1204600F0B9FB0EE007F4806010B16A
:1019200045F4005508E007F4006010B145F4804527
:1019300002E0204600F0A8FB07F48030C8B14FF465
:1019400080302168886007F4003018B1204600F02C
:101950009EFB0EE007F4802010B145F4004508E03E
:1019600007F4002010B145F4803502E0204600F075
:101970008DFB06F0080038B10AF0100020B145F4E4
:10198000007510202168C86006F0040040B10AF01C
:10199000080028B108202168C860204600F00CFA31
:1019A00006F0020038B12068C06800F0030010B1F2
:1019B000204600F003FA06F0400038B10BF01000AA
:1019C00020B145F4806510202168086106F02000F0
:1019D00040B10BF0080028B10820216808612046BA
:1019E00000F01EFB06F0100038B12068006900F01E
:1019F000030010B1204600F014FB06F4003040B1A3
:101A000009F0100028B1102021684860204600F03D
:101A100009FB06F4803040B109F0080028B1082025
:101A200021684860204600F033FB06F4004088B38C
:101A300009F0040078B306F4807020B108F00100CA
:101A400008B145F0010506F4007020B108F002006D
:101A500008B145F0020506F4806020B108F00400EA
:101A600008B145F0040506F40060A0B108F070006C
:101A700088B108F07000402817D006DC10280BD081
:101A800020280CD0302819D10CE0502810D0602824
:101A900014D110E01DE019E045F008050FE045F015
:101AA00010050CE045F0200509E045F0400506E092
:101AB00045F0800503E045F4807500E000BF00BFFD
:101AC0002068806920F07000216888610420216806
:101AD00048602DB1606A284360622046FFF71CFE13
:101AE000BDE8F09F70B504460CB9012070BD94F8B4
:101AF000200010B9204600F0AFF82068006820F000
:101B000002002168086000F0F7FD05460DE000F0D6
:101B1000F3FD401B0A2808D9606A40F40030606277
:101B2000052084F820000120E0E72068406800F0EC
:101B300002000028EBD12068006840F00100216815
:101B4000086000F0D9FD05460DE000F0D5FD401B12
:101B50000A2808D9606A40F400306062052084F8E1
:101B600020000120C2E72068406800F00100002842
:101B7000EBD0207E012806D12068006840F080006C
:101B80002168086005E02068006820F08000216876
:101B90000860607E012806D12068006840F040009F
:101BA0002168086005E02068006820F04000216896
:101BB0000860A07E012806D12068006840F020005F
:101BC0002168086005E02068006820F02000216896
:101BD0000860E07E012806D12068006820F010002F
:101BE0002168086005E02068006840F01000216866
:101BF0000860207F012806D12068006840F00800B6
:101C00002168086005E02068006820F0080021686D
:101C10000860607F012806D12068006840F0040059
:101C20002168086005E02068006820F00400216851
:101C30000860D4E902010843216908436169084347
:101C40006168491E08432168C86100206062012064
:101C500084F82000002049E710B586B0044614211E
:101C600001A8FEF72EFD4E492068884241D14D481B
:101C70000068401C4B4908600846006801280FD1E5
:101C800000BF002000904848006840F000704649BE
:101C900008600846006800F00070009000BF00BFB8
:101CA00000BF0020009040481038006840F0080055
:101CB0003D49103908600846006800F008000090AF
:101CC00000BF00BF0320019002200290002003907B
:101CD000032004900920059001A9344800F006FC77
:101CE00000220621142000F06DFF142000F05AFF9E
:101CF00054E02F492068884250D100BF0020009056
:101D00002948006840F0806027490860084600685C
:101D100000F08060009000BF00BF22480068401CB7
:101D2000204908600846006801280FD100BF002044
:101D300000901D48006840F000701B49086008468C
:101D4000006800F00070009000BF00BF00BF0020DE
:101D5000009015481038006840F002001249103910
:101D600008600846006800F00200009000BF00BF55
:101D70006020019002200290002003900320049034
:101D80000920059001A90B4800F0B0FB00220621B4
:101D9000402000F017FF402000F004FF06B010BD07
:101DA000006400401800002040380240000C02404F
:101DB00000680040000402407047000010B58AB07F
:101DC000044601AB03AA00212046FFF7A6FC8E487B
:101DD00084427DD10398A0F20120062879D2DFE861
:101DE00000F0030405064C4D00BF00BF00BF039880
:101DF000401E864908700846007800EB8000844940
:101E000031F8100000B28149097801EB8101804A64
:101E100002EB410108819DF805009DF8041040EA9D
:101E200001207A49097801EB810122F811009DF81F
:101E300007009DF8061040EA012000B273490978B6
:101E400001EB810102EB410148809DF809009DF8FA
:101E5000081040EA012000B26C49097801EB8101C9
:101E600002EB410188809DF80A006849097801EB7E
:101E7000810102EB410188714AE000BF0398401ED6
:101E8000644908700846007800EB8000604931F82A
:101E9000100000B25F49097801EB81015C4A02EB56
:101EA000410108819DF805009DF8041040EA0120D9
:101EB0005849097801EB810122F811009DF80700CB
:101EC0009DF8061040EA012000B25249097801E06D
:101ED0001FE01CE001EB810102EB410148809DF80D
:101EE00009009DF8081040EA012000B2494909782C
:101EF00001EB810102EB410188809DF80A00454910
:101F0000097801EB810102EB4101887100E000BF1B
:101F100077E04148844274D10398A0F2052010B1C3
:101F2000012847D100E000BF0398801C3B4908709E
:101F30000846007800EB8000354931F8100000B207
:101F40003649097801EB8101314A02EB41010881F0
:101F50009DF805009DF8041040EA01202F490978FA
:101F600001EB810122F811009DF807009DF8061091
:101F700040EA012000B22949097801EB810102EB16
:101F8000410148809DF809009DF8081040EA0120B1
:101F900000B22249097801EB810102EB41018880FE
:101FA0009DF80A001D49097801EB810102EB41010E
:101FB000887125E01648808F01B21548A0F84410BA
:101FC0009DF805009DF8041040EA0120104988871B
:101FD0009DF807009DF8061040EA012001B20C4868
:101FE000C1879DF809009DF8081040EA012001B260
:101FF0000748A0F840109DF80A1080F8421000BF72
:1020000000BF0AB010BD0000240900208C01002090
:10201000C87300208D0100204C0900208E01002093
:1020200070477047704770B5044694F82000012847
:1020300022D1022084F820002068006820F00100EE
:102040002168086000F058FB05460DE000F054FBE5
:10205000401B0A2808D9606A40F4003060620520FD
:1020600084F82000012070BD2068406800F0010065
:102070000028EBD16062F6E7606A40F400206062FD
:102080000120F0E77047704770477047704770470E
:10209000704710B504460CB9012010BD607920B915
:1020A00000202071204600F007F802206071012016
:1020B00060710020F1E7000008B50A4A016891420A
:1020C0000FD100BF002100910749096841F48051F8
:1020D000054A11601146096801F48051009100BF62
:1020E00000BF08BD0030024030380240014691F880
:1020F0003500022803D08020486501207047052064
:1021000081F835000868006820F001000A68106056
:102110000020F3E7F8B50446002000908C480068E2
:102120004FF41651B0FBF1F7A56D2E6894F85C10D2
:1021300008208840304098B12068006800F0040012
:1021400070B12068006820F004002168086094F8ED
:102150005C1008208840A860606D40F00100606558
:1021600094F85C1001208840304068B120684069D4
:1021700000F0800040B194F85C1001208840A86015
:10218000606D40F00200606594F85C1004208840A7
:10219000304068B12068006800F0020040B194F857
:1021A0005C1004208840A860606D40F00400606509
:1021B00094F85C1010208840304078B320680068A4
:1021C00000F0080050B394F85C1010208840A8601C
:1021D0002068006800F4802080B12068006800F466
:1021E000002028B9206CC8B12046216C884715E032
:1021F000A06C98B12046A16C88470FE02068006869
:1022000000F4807028B92068006820F00800216878
:102210000860206C10B12046216C884794F85C104F
:10222000202088403040002865D02068006800F0F9
:10223000100000285FD094F85C1020208840A8602F
:1022400094F83500052828D12068006820F0160091
:10225000216808602068406920F08000216848619A
:10226000206C08B9A06C28B12068006820F0080034
:102270002168086094F85C103F208840A86000BF87
:10228000002084F8340000BF012084F83500206D60
:1022900010B12046216D8847F8BD2068006800F421
:1022A000802080B12068006800F4002028B9606CAC
:1022B00010B12046616C88471DE0E06BD8B1204624
:1022C000E16B884717E02068006800F4807068B907
:1022D0002068006820F010002168086000BF00201E
:1022E00084F8340000BF012084F83500E06B10B1A1
:1022F0002046E16B8847606D38B3606D00F00100E7
:10230000F0B1052084F835002068006820F0010055
:102310002168086000BF0098401C0090B84200D9B6
:1023200005E02068006800F001000028F3D100BF3C
:1023300000BF002084F8340000BF012084F835007D
:10234000E06C10B12046E16C884700BFA4E70000B4
:10235000300000202DE9F0410446002500F0CCF9C2
:10236000074614B90120BDE8F081606A00B100BFE2
:1023700000BF002084F8340000BF022084F835003C
:102380002068006820F00100216808600AE000F081
:10239000B3F9C01B052805D920206065032084F807
:1023A0003500E0E72068006800F001000028EED169
:1023B0002068056821480540D4E901010843E16827
:1023C00008432169084361690843A1690843E16939
:1023D0000843216A08430543606A042803D1D4E90D
:1023E0000B0108430543206805602068456925F016
:1023F0000705606A0543606A04280DD1A06A054399
:10240000E06A48B12046FEF777FE28B140206065BB
:10241000012084F83500A6E7206845612046FEF7D4
:1024200051FE064694F85C103F208840B0600020C2
:102430006065012084F83500002094E73F8010F0AB
:1024400010B50446102C11D11A48007840F0010054
:10245000184908701848007840F0010016490870C3
:102460001648007828B306F0B1FC22E0202C0BD1EE
:102470001348007840F00100114908700F480078B7
:10248000B8B106F0A3FC14E0012C12D109F0A4FCB1
:1024900001280ED00B490C48006808F045FE094899
:1024A000006830B1200709490860BFF34F8FBFF3C0
:1024B0006F8F10BDFE000020FF00002000010020F3
:1024C000FD00002068010020D800002004ED00E09D
:1024D00010B5044604480068204020B1024804605A
:1024E0002046FFF7ADFF10BD143C0140F8B5024691
:1024F0000B460025002400200021DCE0012606FA1E
:1025000001F51E6806EA0504AC4273D15E68022E2E
:1025100002D05E68122E13D1CF0802F1200656F8C1
:1025200027004E07F70E0F26BE40B0434F07FF0EA1
:102530001E69BE403043CF0802F1200646F827004E
:1025400010684F000326BE40B0431E7906F0030614
:102550004F00BE40304310605E68012E08D05E68B8
:10256000022E05D05E68112E02D05E68122E13D1A5
:1025700090684F000326BE40B0434F00DE68BE4067
:1025800030439060506801268E40B0431E79C6F3F8
:1025900000168E4030435060D0684F000326BE4086
:1025A000B0434F009E68BE403043D0605E6806F086
:1025B0008056B6F1805F7DD100BF00260096404E68
:1025C000366846F480463E4F3E603E46366806F426
:1025D0008046009600BF00BF3A4E8F0856F827008D
:1025E0008E07370F0F26BE40B043374EB24202D19E
:1025F000002624E05EE0354EB24201D101261EE005
:10260000334EB24201D1022619E0324EB24201D11C
:10261000032614E0304EB24201D104260FE02F4EC3
:10262000B24201D105260AE02D4EB24201D1062662
:1026300005E02C4EB24201D1072600E008268F07A4
:102640003F0FBE4030431F4E8F0846F82700264EEE
:102650003068A0435E6806F48036B6F5803F00D14E
:102660002043214E3060361D3068A0435E6806F47A
:102670000036B6F5003F00D120431B4E361D3060BA
:10268000361D3068A0435E6806F48016B6F5801FDC
:1026900000D12043144E08363060361D3068A04308
:1026A0005E6806F40016B6F5001F00D120430E4EFA
:1026B0000C363060491C1029FFF420AFF8BD000033
:1026C0004438024008380140000002400004024043
:1026D00000080240000C02400010024000140240BA
:1026E00000180240001C0240003C01400AB1816118
:1026F00001E00B04836170470148006870470000E7
:102700002400002070B504460CB9012070BD94F877
:102710003D0028B9002084F83C00204600F0CEF8A7
:10272000242084F83D002068006820F00100216822
:10273000086000F02FFC05465C496068884206D8B6
:102740005B48854201D2012007E0002005E059489E
:10275000854201D2012000E00020012800D1D5E708
:102760005548B5FBF0F62068406820F03F00304344
:10277000216848604D496068884201D8701C07E0B4
:102780004FF4967070434FF47A71B0FBF1F0401C37
:102790002168096A21F03F01084321680862434922
:1027A0006068884214D8681E61684900B0FBF1F087
:1027B000401CC0F30B00042801D204203DE0681E39
:1027C00061684900B0FBF1F0401CC0F30B0034E03D
:1027D000A06838B9681E616801EB4101B0FBF1F0F7
:1027E000401C0AE0681E616801EBC10202EB0111A6
:1027F000B0FBF1F0401C40F48040C0F30B0008B97E
:1028000001201AE0A06848B9681E616801EB410127
:10281000B0FBF1F0401CC0F30B000CE0681E6168D7
:1028200001EBC10202EB0111B0FBF1F0401CC0F35F
:102830000B0040F4804040F400402168C9694CF628
:10284000FF72914308432168C861D4E90701084336
:102850002168096821F0C001084321680860D4E9B3
:10286000031008432168896848F2FF329143084306
:1028700021688860D4E9050108432168C96821F00E
:10288000FF0108432168C8602068006840F001002B
:102890002168086000202064202084F83D0000208A
:1028A000206384F83E0000BF30E70000A0860100EE
:1028B00080841E0000093D0040420F0010B586B024
:1028C0000446142101A8FDF7FCFE6F4920688842E8
:1028D00030D100BF002000906C48006840F002003A
:1028E0006A4908600846006800F00200009000BFD6
:1028F00000BF4FF44070019012200290012003901D
:10290000032004900420059001A96148FFF7EEFD23
:1029100000BF002000905D481030006840F40010B7
:102920005A49103108600846006800F40010009011
:1029300000BFA6E057492068884250D100BF002060
:1029400000905248006840F0200050490860084656
:10295000006800F02000009000BF00BF032001903D
:10296000122002900120039003200490042005907F
:1029700001A94948FFF7BAFD00BF00200090434875
:102980001030006840F4800040491031086008466B
:10299000006800F48000009000BF00BF3F4840493D
:1029A00008604FF06060486040213D488160002130
:1029B000C1604FF480610161002141618161C161A9
:1029C0004FF40031016200214162FFF7C3FC08B1FE
:1029D000FEF7FCFB00BF32486063846351E031497D
:1029E000206888424DD100BF002000902748006831
:1029F00040F00400254908600846006800F0040023
:102A0000009000BF00BF00BF002000900846006893
:102A100040F0010008600846006800F001000090E6
:102A200000BF00BF481501901220029001200390C2
:102A3000032004900420059001A91B48FFF756FDD0
:102A40004FF4807001901220029001200390032027
:102A500004900420059001A91448FFF747FD00BF2A
:102A60000020009009481030006840F40000074939
:102A7000103108600846006800F40000009000BFB4
:102A800000BF06B010BD00000054004030380240C6
:102A9000000402400058004000140240B8600240A8
:102AA000700A0020005C0040000802400000024064
:102AB00003480068034909780844014908607047E1
:102AC000240000202C00002010B50D48006840F4C0
:102AD00000700B4908600846006840F48060086098
:102AE0000846006840F480700860032000F0A8F8F1
:102AF0000F2000F007F800F02BF8002010BD0000B8
:102B0000003C024070B504460E4800784FF47A71DC
:102B1000B1FBF0F00C490968B1FBF0F5284600F074
:102B2000F4FF08B1012070BD102C07D2002221460D
:102B3000501E00F047F80548046001E00120F2E76C
:102B40000020F0E72C0000203000002028000020AA
:102B500008B500BF002000901148006840F4804094
:102B60000F4908600846006800F48040009000BFEC
:102B700000BF00BF00200090081F006840F0805098
:102B8000091F08600846006800F08050009000BFF0
:102B900000BF00220F21901E00F014F808BD0000B5
:102BA0004438024001460846002809DB00F01F03B4
:102BB00001229A4043099B0003F1E023C3F800215E
:102BC00000BF70472DE9F05F80460D46164600278E
:102BD00004F072F9074639462A46334601F00700E9
:102BE000C0F1070ABAF1040F02D94FF0040A01E05C
:102BF000C0F1070AD14600F1040ABAF1070F02D268
:102C00004FF0000A01E0A0F1030AD4464FF0010A98
:102C10000AFA09FAAAF1010A0AEA020A0AFA0CFAFD
:102C20004FF0010B0BFA0CFBABF1010B0BEA030BA2
:102C30004AEA0B042146404604F046F9BDE8F09FFD
:102C400000BF00F00702064B19684FF6FF0319405A
:102C5000044B0B4343EA0221014B196000BF70474C
:102C60000CED00E00000FA05F8B50446002500264A
:102C7000207800F0010020B9207800F0040004283A
:102C80002FD100205B498866FFF736FD054606E038
:102C9000FFF732FD401B022801D90320F8BD56483A
:102CA0000068C0F3C0600028F2D160688101207A1A
:102CB00041EA007050498431086001204D4988661E
:102CC000FFF71AFD054606E0FFF716FD401B022838
:102CD00001D90320E2E748480068C0F3C06000283B
:102CE000F2D0207800F0020002287DD100BF002041
:102CF000009041484030006840F080503E494031EB
:102D000008600846006800F08050009000BF00BFD7
:102D10003A48006840F4807038490860FFF7ECFCDE
:102D2000054606E0FFF7E8FC401B022801D9032016
:102D3000B4E73248006800F480700028F2D02E48D2
:102D40007030006800F440764EB3A08900F4407003
:102D5000B04224D028487030006820F4407601202A
:102D6000274908600020086023487030066000682A
:102D700000F0010098B1FFF7BFFC054608E0FFF73F
:102D8000BBFC401B41F28831884201D9032085E712
:102D9000194870300068C0F340000028EFD000BF31
:102DA000A08900F44070B0F5407F0CD11248083083
:102DB000006820F4F810134AE168114008430E49F6
:102DC0000831086007E00C480830006820F4F8106B
:102DD000094908310860084870300068A189C1F3CA
:102DE0000B010843044900E002E07031086000BFB5
:102DF000002053E7000047420038024000700040C6
:102E0000400E4742FFFCFF0F70B504460D460CB95B
:102E1000012070BD5848006800F00F00A84209D298
:102E200055490D700846006800F00F00A84201D017
:102E30000120EEE7207800F0020002281DD1207862
:102E400000F00400042805D14C48006840F4E0502C
:102E50004A490860207800F00800082805D1474852
:102E6000006840F46040454908604448006820F02C
:102E7000F000A168084341490860207800F0010093
:102E8000A8B36068012807D13C4808380068C0F33F
:102E90004040B8B90120BCE76068022802D06068F1
:102EA000032807D1354808380068C0F3406048B9A6
:102EB0000120AEE7314808380068C0F3400008B987
:102EC0000120A6E72D48006820F003006168084350
:102ED0002A490860FFF710FC064609E0FFF70CFCE2
:102EE000801B41F28831884202D9032091E707E034
:102EF0002248006800F00C006168B0EB810FEDD152
:102F00001D48006800F00F00A84209D91A490D7049
:102F10000846006800F00F00A84201D0012078E7C1
:102F2000207800F00400042807D11448006820F439
:102F3000E050E168084311490860207800F008007B
:102F4000082808D10D48006820F46040216940EA53
:102F5000C1000A49086000F03DF808490968C1F35A
:102F60000311074A515CC840064908600F20FFF76B
:102F7000C9FD00204DE70000003C02400838024037
:102F800048D6000830000020014800687047000063
:102F90003000002000B5FFF7F7FF04490968C1F3CE
:102FA0008221034A515CC84000BD0000083802403D
:102FB00058D6000800B5FFF7E7FF04490968C1F3D8
:102FC0004231034A515CC84000BD0000083802404D
:102FD00058D600082DE9F047002400250026A14618
:102FE0002548006800F00C0020B1042805D008280E
:102FF0003AD105E0DFF8849039E0DFF8849036E0DC
:103000001D48001F006800F03F041B48001F0068B7
:1030100000F4800078B11A481749091F0968C1F304
:103020008811A0FB01700146224600233846FDF7B7
:1030300011FA05460EE011480F49091F0968C1F34E
:103040008811A0FB01700146224600233846FDF797
:1030500001FA05460848001F0068C0F30140401C03
:103060004600B5FBF6F902E0DFF8109000BF00BFA4
:103070004846BDE8F0870000083802400024F4000C
:10308000001BB700F8B504460CB90120F8BD207844
:1030900000F00100002874D0F948006800F00C002E
:1030A00004280DD0F648006800F00C00082813D161
:1030B000F348001F006800F48000B0F5800F0BD1CA
:1030C000EF4808380068C0F34040002859D06068D5
:1030D000002856D10120D9E700BF6068B0F5803FD5
:1030E00008D1E7480838006840F48030E4490839DE
:1030F00008601EE06068B0F5A02F0DD1E0480838E8
:10310000006840F48020DE490839086008460068FD
:1031100040F4803008600CE0D9480838006820F49A
:103120008030D749083908600846006820F48020BC
:10313000086000BF606890B1FFF7DEFA054606E060
:10314000FFF7DAFA401B642801D903209EE7CC4838
:1031500008380068C0F340400028F1D011E0FFF7C4
:10316000CBFA054606E0FFF7C7FA401B642801D9F1
:1031700003208BE7C24808380068C0F340400028AD
:10318000F1D1207800F0020002285FD1BC4800682D
:1031900000F00C0058B1BA48006800F00C00082894
:1031A0001CD1B748001F006800F48000B0B9B448D3
:1031B00008380068C0F3400020B1E068012801D061
:1031C000012063E7AE480838006820F0F800216964
:1031D00040EAC100AA490839086037E0E06800B356
:1031E0000120A8490860FFF787FA054606E0FFF7C7
:1031F00083FA401B022801D9032047E7A04808387A
:103200000068C0F340000028F1D09D4808380068ED
:1032100020F0F800216940EAC100994908390860A6
:1032200014E0002097490860FFF766FA054606E0BB
:10323000FFF762FA401B022801D9032026E79048D5
:1032400008380068C0F340000028F1D1207800F071
:10325000080008282CD16069A8B101208A490860BB
:10326000FFF74AFA054606E0FFF746FA401B022838
:1032700001D903200AE782486C300068C0F340009F
:103280000028F1D014E000207F490860FFF734FAED
:10329000054606E0FFF730FA401B022801D903205B
:1032A000F4E677486C300068C0F340000028F1D1A4
:1032B000207800F00400042870D1002670483830CF
:1032C000006800F0805090B900BF002000906C486A
:1032D0003830006840F0805069493831086008464D
:1032E000006800F08050009000BF00BF01266748D2
:1032F000006800F48070B0B96448006840F48070E1
:1033000062490860FFF7F8F9054606E0FFF7F4F9AF
:10331000401B022801D90320B8E65C48006800F48D
:1033200080700028F2D000BFA068012808D154485E
:103330006830006840F001005149683108601DE0C4
:10334000A06805280DD14E486830006840F00400A0
:103350004B49683108600846006840F00100086089
:103360000CE047486830006820F0010044496831AB
:1033700008600846006820F00400086000BFA068EC
:10338000A8B1FFF7B9F9054609E0FFF7B5F9401B09
:1033900041F28831884202D9032077E626E0384896
:1033A00068300068C0F340000028EED013E0FFF75B
:1033B000A3F9054608E0FFF79FF9401B41F2883169
:1033C000884201D9032061E62D4868300068C0F3C7
:1033D00040000028EFD1012E07D12948383000687D
:1033E00020F0805026493831086000BFA069B8B38A
:1033F0002348006800F00C0008285ED0A06902286D
:1034000046D100201F490866FFF776F9054606E019
:10341000FFF772F9401B022801D9032036E618484D
:1034200008380068C0F340600028F1D1D4E90701F2
:103430000843616A40EA81110122A06AC2EB500090
:1034400041EA00412C20005D41EA00600C49091F5F
:10345000086001200B490866FFF74EF9054607E0B2
:103460002DE0FFF749F9401B022801D903200DE6A2
:10347000034808380068C0F340600028F1D01EE01F
:103480000838024000004742800E4742007000406A
:1034900000200C490866FFF72FF9054606E0FFF704
:1034A0002BF9401B022801D90320EFE506480068EC
:1034B000C0F340600028F2D101E00120E6E50020E1
:1034C000E4E50000000047420038024010B5044621
:1034D0000CB9012010BD607920B900202071204670
:1034E00000F00EF8022060712068006840F00400CF
:1034F00021680860012060710020A06000BFE9E73A
:1035000008B50A4A016891420FD100BF002100911D
:103510000749096841F04001054A116011460968F0
:1035200001F04001009100BF00BF08BD0008065037
:103530003438024010B504460CB9012010BD607F3C
:1035400020B900202077204600F060F80220607744
:1035500000BFCA202168486253202168486200BF2A
:10356000204602F0FDFC40B100BFFF202168486208
:1035700000BF042060770120E0E7206880682249CE
:1035800008402168886021696068084361690843D0
:10359000216889680843216888602168E0680861BB
:1035A00020680169208941EA00402168086120689B
:1035B000C06820F080002168C8602068806800F042
:1035C000200060B9204600F041F840B100BFFF2064
:1035D0002168486200BF042060770120AEE72068C0
:1035E000006C20F48020216808642068006CA169C8
:1035F00008432168086400BFFF202168486200BFBB
:1036000001206077002099E7BFFF8FFF1FB50446B8
:1036100000200090019002900390094920688842A0
:103620000CD102200090074803906846FFF71CFB6E
:1036300008B1FDF7CBFD0120034908601FBD000064
:103640000028004000031E003C0E474270B50446AF
:1036500000252068C06820F0A0002168C860FFF73E
:103660004BF8054607E0FFF747F8401BB0F57A7FB7
:1036700001D9032070BD2068C06800F02000002838
:10368000F1D00020F6E710B504460CB9012010BDBA
:10369000606A00B900BF0021A16294F8510028B906
:1036A000002084F85000204600F034F8022084F80E
:1036B00051002068006820F0400021680860D4E9CB
:1036C00001010843E168084321690843616908432F
:1036D000218B01F400710843E1690843216A084322
:1036E000A16A0843216808600421A06901EA10402A
:1036F000616A0843216848602068C06920F400605E
:103700002168C86100206065012084F85100002014
:10371000BDE7000010B586B00446142101A8FCF7EF
:10372000D0FF6749206888427ED100BF002000900A
:103730006448006840F480506249086008460068A8
:1037400000F48050009000BF00BF00BF0020009038
:103750005C481438006840F002005A491439086087
:103760000846006800F00200009000BF00BF00BFE4
:10377000002000900846006840F0010008600846FC
:10378000006800F00100009000BF00BF1820019009
:103790000220029001200390032004900520059050
:1037A00001A94948FEF7A2FE802001900220029064
:1037B00001200390032004900520059001A94348AF
:1037C000FEF794FE4248434908604FF0C0604860ED
:1037D000002140488160C1604FF480610161002197
:1037E00041618161C1614FF4403101620021416258
:1037F000FEF7B0FD08B1FDF7E9FC00BF3548E06415
:10380000846300BF32481830334908604FF0C0600D
:1038100048604021304881600021C1604FF48061E0
:1038200001610021416100E010E08161C1614FF45C
:103830000031016200214162FEF78CFD08B1FDF705
:10384000C5FC00BF2448A064846336E02349206897
:10385000884232D100BF002000901A48001F006843
:1038600040F480401749091F08600846006800F4CA
:103870008040009000BF00BF00BF002000901148B2
:103880001438006840F002000E49143908600846F8
:10389000006800F00200009000BF00BF4FF46040DD
:1038A0000190022002900120039003200490052043
:1038B000059001A90448FEF719FE06B010BD0000EE
:1038C0000030014044380240000402400000024041
:1038D00040640240B00B0020100C00200038004073
:1038E0002DE9FF5F0446884691461D460E9E012045
:1038F00002900020019000BF94F85000012803D1ED
:10390000022004B0BDE8F09F012084F8500000BF01
:10391000FEF7F2FE074694F851B060680390AA469D
:10392000BBF1010F0BD00398B0F5827F04D1A068E2
:1039300010B9BBF1040F02D002200190DBE0B8F116
:10394000000F03D0B9F1000F00D015B9012001908C
:10395000D1E094F85100042802D0052084F85100E9
:1039600000206065C4F83890E587A587C4F83080EA
:10397000E586A586206460642068006800F0400049
:10398000402805D02068006840F0400021680860A9
:10399000E068B0F5006F4AD1606810B1BAF1010F6C
:1039A00009D1206B00882168C860206B801C2063CF
:1039B000E08E401EE08633E02068806800F0020060
:1039C000022810D1E08E70B1029801280BD1206B33
:1039D00000882168C860206B801C2063E08E401E38
:1039E000E086002002902068806800F0010068B145
:1039F000E08F58B12068C068A16B0880A06B801C64
:103A0000A063E08F401EE08701200290FEF774FE65
:103A1000C01BB04204D3701C10B1032001906AE0B7
:103A2000E08E0028C8D1E08F0028C5D14AE0606848
:103A300010B1BAF1010F09D1206B00782168087329
:103A4000206B401C2063E08E401EE08634E020683E
:103A5000806800F00200022810D1E08E70B1029858
:103A600001280BD1206B007821680873206B401C63
:103A70002063E08E401EE08600200290206880686F
:103A800000F0010068B1E08F58B12068C068A16BF8
:103A90000870A06B401CA063E08F401EE0870120EF
:103AA0000290FEF729FEC01BB04201D3701C00B982
:103AB00016B9032001901EE0E08E0028C7D1E08FE8
:103AC0000028C4D13A463146204602F0CDFB20B151
:103AD00001200190202060650DE0A06850B900BF72
:103AE000002000902068C0680090206880680090E6
:103AF00000BF00BF00BF012084F8510000BF0020BC
:103B000084F8500000BF0198FBE670B504462546D6
:103B1000681EB0F1807F01D301200FE0681E4FF0D6
:103B2000E02148610F214FF0FF3003F0CDF9002074
:103B30004FF0E021886107200861002070BD10B5BA
:103B40000346002200BF93F83C00012801D1022067
:103B500010BD012083F83C0000BF22F0FF00CC68BC
:103B600040EA040222F440708C6840EA040222F425
:103B700080604C6840EA040222F400600C6840EA6D
:103B8000040222F480500C6940EA040222F400503E
:103B90004C6940EA040222F48040CC6940EA040205
:103BA0001868426400BF002083F83C0000BF00BFDB
:103BB000CEE710B5024600BF92F83C00012801D1C3
:103BC000022010BD012082F83C0000BF022082F8D4
:103BD0003D00106843681068846823F0700308682B
:103BE000034324F08004486804431068436010686D
:103BF0008460012082F83D0000BF002082F83C0074
:103C000000BF00BFDDE710B504460CB9012010BDB0
:103C100094F83D0028B9002084F83C00204600F0CC
:103C20000DF8022084F83D00211D206802F01AFCE6
:103C3000012084F83D000020E9E7000008B53F4A74
:103C4000016891420FD100BF002100913C490968F1
:103C500041F001013A4A11601146096801F0010181
:103C6000009100BF69E0374A0168914211D100BF5D
:103C7000002100913249091F096841F00201304AD0
:103C8000121F11601146096801F00201009100BF86
:103C900053E02D4A0168914211D100BF00210091EB
:103CA0002749091F096841F00401254A121F1160C4
:103CB0001146096801F00401009100BF3DE0234A6C
:103CC0000168914211D100BF002100911C49091FD8
:103CD000096841F008011A4A121F1160114609686B
:103CE00001F00801009100BF27E0194A01689142E4
:103CF0000FD100BF002100911149096841F0020174
:103D00000F4A11601146096801F00201009100BFDD
:103D100013E0104A016891420FD100BF00210091C9
:103D20000749096841F40031054A116011460968E4
:103D300001F40031009100BF00BF08BD0000014048
:103D4000443802400004004000080040000C0040DD
:103D500000040140004401402DE9F04104460D46B5
:103D600000BF94F83C00012802D10220BDE8F08198
:103D7000012084F83C0000BF022084F83D00206848
:103D8000866826F0770626F47F46206886602868D5
:103D9000502833D00CDC202850D004DC00284BD035
:103DA000102851D149E0302849D040284CD139E081
:103DB00060282DD0702807D0B0F5805F03D0B0F513
:103DC000005F41D10DE040E0D5E902136A68206848
:103DD00002F0B4FB2068866846F0770620688660AB
:103DE00033E0D5E902136A68206802F0A7FB206877
:103DF000806840F480402168886026E0EA6869684D
:103E0000206802F08BFC5021206802F0A2FB1CE02D
:103E1000EA686968206802F094FC6021206802F07A
:103E200098FB12E0EA686968206802F077FC40219C
:103E3000206802F08EFB08E000BF00BF00BF2968C9
:103E4000206802F086FB00E000BF00BF012084F87C
:103E50003D0000BF002084F83C0000BF00BF85E7A4
:103E600010B586B00446142101A8FCF72AFC784955
:103E7000206888421FD100BF00200090754800686C
:103E800040F01000734908600846006800F0100018
:103E9000009000BF00BF4FF4D44001900220029078
:103EA00001200390022004900120059001A96A4896
:103EB000FEF71CFBCAE06949206888421DD100BF9B
:103EC000002000906348006840F0040061490860E9
:103ED0000846006800F00400009000BF00BF88158D
:103EE000019002200290012003900220049005908E
:103EF00001A95B48FEF7FAFAA8E05A49206888420F
:103F00001FD100BF002000905248006840F0080018
:103F1000504908600846006800F00800009000BFA3
:103F200000BF4FF4804001900220029001200390D6
:103F3000032004900220059001A94B48FEF7D6FA11
:103F400084E04A49206888421ED100BF00200090CA
:103F50004048006840F080003E490860084600681C
:103F600000F08000009000BF00BF4FF4E0500190CF
:103F7000022002900120039002200490059001A9E4
:103F80003B48FEF7B3FA61E03A49206888423BD1EA
:103F900000BF002000902F48006840F480702D4939
:103FA00008600846006800F48070009000BF00BF01
:103FB00000BF002000900846006840F00400086040
:103FC0000846006800F00400009000BF00BF4020D9
:103FD000019002200290012003900220049003200F
:103FE000059001A92448FEF781FA402001900220A3
:103FF000029001200390022004900320059001A963
:104000001748FEF773FA21E01C49206888421DD149
:1040100000BF002000900F48006840F020000D49CC
:1040200008600846006800F02000009000BF00BF54
:104030004020019002200290012003900220049071
:104040000320059001A90E48FEF750FA06B010BDF6
:1040500000000140303802400010024000040040DF
:104060000008024000080040000C0240000C004024
:10407000001C0240000401400020024000440140B6
:104080000014024070B504460D46164600BF94F871
:104090003C00012801D1022070BD012084F83C00C1
:1040A00000BF022084F83D0036B1042E1BD0082E3C
:1040B00031D00C2E5ED145E02946206802F052FA3C
:1040C0002068806940F00800216888612068806964
:1040D00020F004002168886120688069296908430C
:1040E0002168886147E02946206802F073FA206859
:1040F000806940F40060216888612068806920F44C
:1041000080602168886120688069296940EA01200F
:10411000216888612FE02946206802F099FA20681A
:10412000C06940F008002168C8612068C06920F0BB
:1041300004002168C8612068C069296908432168B2
:10414000C86118E02946206802F0BEFA2068C069FC
:1041500040F400602168C8612068C06920F4806074
:104160002168C8612068C069296940EA0120216886
:10417000C86100E000BF00BF012084F83D0000BF1F
:10418000002084F83C0000BF00BF85E710B504465E
:104190000CB9012010BD94F83D0028B9002084F826
:1041A0003C00204600F00CF8022084F83D00211D60
:1041B000206802F057F9012084F83D000020E9E76B
:1041C000704770472DE9F04704462068056820686D
:1041D000C668206847694FF00008C14605F00F081F
:1041E000B8F1000F0AD105F0200038B106F0200028
:1041F00020B1204602F0E3FABDE8F087B8F1000FE5
:104200006ED007F0010018B906F49070002867D04E
:1042100005F0010030B106F4807018B1E06B40F099
:104220000100E06305F0040030B107F0010018B1AF
:10423000E06B40F00200E06305F0020030B107F0EF
:10424000010018B1E06B40F00400E06305F00800E5
:1042500030B107F0010018B1E06B40F00800E063F6
:10426000E06B70B305F0200028B106F0200010B11B
:10427000204602F0A4FA20684069C0F38019E06B80
:1042800000F0080010B9B9F1000F23D0204602F069
:1042900076FA2068406900F04000402816D1206876
:1042A000406920F0400021684861606B50B11748B8
:1042B000616B0865606BFDF719FF10B1606B016DF4
:1042C00088470CE02046FFF77CFF08E02046FFF718
:1042D00078FF04E02046FFF774FF0020E0638BE7DF
:1042E00005F0800030B106F0800018B1204602F0E1
:1042F0006DFC81E705F0400030B106F0400018B1D8
:10430000204602F04CFA77E700BF75E76B670008BC
:1043100010B504460CB9012010BDA06900B100E041
:1043200000BF94F8390028B9002084F838002046EE
:1043300000F028F8242084F839002068C06820F4B0
:1043400000502168C860204602F08CFA206800699D
:1043500020F49040216808612068406920F02A001C
:10436000216848612068C06840F400502168C86036
:104370000020E063202084F8390084F83A0000200F
:10438000CAE7000010B586B00446142101A8FCF766
:1043900098F9C049206888427ED100BF0020009073
:1043A000BD48006840F01000BB490860084600683E
:1043B00000F01000009000BF00BF00BF0020009080
:1043C000B5481438006840F00200B3491439086059
:1043D0000846006800F00200009000BF00BF00BF68
:1043E000002000900846006840F001000860084680
:1043F000006800F00100009000BF00BF8020019025
:1044000002200290002003900320049007200590D2
:1044100001A9A248FEF76AF84FF40070019002204B
:10442000029000200390032004900720059001A92A
:104430009B48FEF75BF89B489B4908604FF0006083
:1044400048604021984881600021C1604FF480613C
:104450000161002141618161C1614FF480310162DC
:1044600000214162FDF776FF08B1FCF7AFFE00BF07
:104470008D482063846300BF8A4830388B490860C8
:104480004FF000604860002188488160C1604FF4AF
:1044900080610161002100E01AE041618161C16138
:1044A0004FF40031016200214162FDF753FF08B172
:1044B000FCF78CFE00BF7D486063846300BF002270
:1044C00005212520FEF77EFB2520FEF76BFBDEE0B5
:1044D0007749206888425BD100BF002000906E4879
:1044E000001F006840F480206B49091F08600846DF
:1044F000006800F48020009000BF00BF00BF0020D3
:10450000009065481438006840F00400624914398E
:1045100008600846006800F00400009000BF00BF7B
:104520004FF440600190022002900020039003208D
:1045300004900720059001A95E48FDF7D7FF5E486B
:104540005E4908604FF00060486000215B48816070
:10455000C1604FF480610161002141618161C161ED
:104560004FF40031016200214162FDF7F3FE08B112
:10457000FCF72CFE00BF51486063846300BF00223B
:1045800004212720FEF71EFB2720FEF70BFB7EE011
:104590004B49206888427AD100BF002000903E48F5
:1045A000006840F020003C4908600846006800F0C0
:1045B0002000009000BF00BF00BF002000903648E0
:1045C0001438006840F04000334914390860084648
:1045D000006800F04000009000BF00BF4FF484402E
:1045E00001900220029000200390032004900820F4
:1045F000059001A93348FDF779FF2A4890383249E0
:1046000008608005486000212F488160C1604FF438
:1046100080610161002141618161C1614FF400311C
:10462000016200214162FDF795FE08B1FCF7CEFD65
:1046300000BF25486063846300BF1A4818382349C7
:1046400008604FF0206048604021204881600021D0
:10465000C1604FF480610161002141618161C161EC
:104660004FF48031016200214162FDF773FE08B111
:10467000FCF7ACFD00BF15482063846300BF002237
:1046800005214720FEF79EFA4720FEF78BFA06B079
:1046900010BD0000001001404438024000040240F8
:1046A00000000240B8640240B00E0020100F00204D
:1046B000004800400008024028600240700F0020BF
:1046C0000014014000180240D00F002030100020DC
:1046D0007047000000B502460248824201D103F053
:1046E00005FE00BD700E002000BFFEE710B52DEDE9
:1046F000088B00247AE0424AA2F10C01101DFCF75D
:1047000081FA3F48103890ED050A10EE101A08465D
:1047100008F04CFD41EC1B0B9FED3A0B53EC102BBA
:1047200008F0A2F841EC190B384890ED000A10EEA1
:10473000101A084608F03AFD41EC1A0B53EC192BFD
:1047400008F032FA41EC180B07F0B0FD2F49086071
:104750002B48103890ED060A10EE101A084608F0A3
:1047600025FD41EC1B0B9FED270B53EC102B08F0A4
:104770007BF841EC190B254890ED010A10EE101A58
:10478000084608F013FD41EC1A0B53EC192B08F006
:104790000BFA41EC180B07F089FD1C4948601848DA
:1047A000103890ED070A10EE101A084608F0FEFCCB
:1047B00041EC1B0B9FED130B53EC102B08F054F83E
:1047C00041EC190B114890ED020A10EE101A084640
:1047D00008F0ECFC41EC1A0B53EC192B08F0E4F94F
:1047E00041EC180B07F062FD084988602046641C04
:1047F00041F288318842FFF67EAFBDEC088B10BDD8
:10480000EC7200202D431CEBE2362A3F7C73002023
:10481000012004F0FEFC02E0642004F0FAFCFCF746
:10482000D7F90028F8D19B4AA2F10C01101DFCF722
:10483000E9F9FFF75BFF974A103A9749974804F068
:104840005FFADFED970A9FED970A974A0021974894
:1048500001F008FB964A90499648FCF7F1F88E481B
:1048600090ED000A944880ED000A944880ED000A1B
:10487000934880ED000A884890ED010A8E4880ED4B
:10488000010A8E4880ED010A8D4880ED010A8248B8
:1048900090ED020A884880ED020A884880ED020AFD
:1048A000874880ED020A002004F0F4FC044607F07B
:1048B00041FA8449086010218348C161FEF7E3FE94
:1048C00008B1FCF783FC08228049814801F00CFC08
:1048D000012080490870DBE000BF4FF0FF3101206C
:1048E00006F08CF90128F8D17B48007800F004002C
:1048F00058B17948007820F004007749087065497C
:10490000091D7248401CFCF72FF97448007800F02C
:10491000040060B17148007820F004006F4908700D
:104920005C4A1032A2F11C016D48FCF7C7F86D48D3
:10493000007800F0040088B16A48007820F0040094
:104940006849087053496848FCF74AFA51481038DA
:10495000D0ED040AB0EE600A04F0F2FA4D4A103AC3
:104960004D494E4804F0CCF9544890ED000A5448A3
:1049700080ED000A504890ED000A504880ED000A92
:1049800090ED000A5948D0ED000A20EE200A4C486C
:10499000D0ED000A554890ED011A00EE810A3E481C
:1049A000D0ED000A514890ED021A00EE810A42480B
:1049B00080ED000A414890ED010A414880ED010A6E
:1049C0003D4890ED010A3D4880ED010A90ED010A55
:1049D0004648D0ED000A20EE200A3948D0ED010A01
:1049E000424890ED011A00EE810A2B48D0ED010AF1
:1049F0003E4890ED021A00EE810A2F4880ED010A30
:104A00002E4890ED020A2E4880ED020A2A4890EDC9
:104A1000020A2A4880ED020A90ED020A3348D0EDDE
:104A2000000A20EE200A2648D0ED020A2F4890ED19
:104A3000011A00EE810A1848D0ED020A2B4890EDC9
:104A4000021A00EE810A1C4880ED020A90ED023A3B
:104A5000F0EE432A90ED013AB0EE432A90ED003A91
:104A6000F0EE431A0D4890ED023AB0EE431A90ED85
:104A7000013AF0EE430A90ED003AB0EE430A0D48D9
:104A800000F03EFE1A4B1A1F111F0A4803F072FD78
:104A900022E70000EC72002094730020887300204D
:104AA0000080894500A08C4574D600080C73002056
:104AB000A0730020AC73002070730020647300208A
:104AC00058730020D8000020000B0020DC000020DC
:104AD000E400002000010020FD000020FE00002076
:104AE000D2720020FF000020F700002080D60008CE
:104AF000C47300201FB50020009001900290039025
:104B00001548164908604FF40030486000211348EA
:104B100081600161017680F82010C16210498162D4
:104B20000021C1600121C161002180F83010012104
:104B30004161FCF715FC08B1FCF748FB1020009020
:104B4000012001900020029069460448FCF742FBD6
:104B500008B1FCF73BFB1FBD00200140940800207A
:104B60000100000F1FB500200090019002900390FB
:104B70001548164908604FF400304860002113487A
:104B800081600161017680F82010C1621049816264
:104B90000021C1600121C161002180F83010012194
:104BA0004161FCF7DDFB08B1FCF710FB0820009029
:104BB000012001900020029069460448FCF70AFB9E
:104BC00008B1FCF703FB1FBD00220140DC080020F8
:104BD0000100000F10B50E480E4908600320486020
:104BE00000210C488160C1604FF4102101614FF435
:104BF000001141610021017641768176C17601770D
:104C00004177FCF76FFF08B1FCF7E0FA10BD000038
:104C1000006400402409002010B50E480E490860C9
:104C20000320486000210C488160C1604FF41021CE
:104C300001614FF4001141610021017641768176D6
:104C4000C17601774177FCF74DFF08B1FCF7BEFA5A
:104C500010BD0000006800404C09002010B5054858
:104C6000054908600846FDF714FA08B1FCF7AEFAEA
:104C700010BD0000003002401C00002008B500BF3D
:104C8000002000902E48006840F480002C49086005
:104C90000846006800F48000009000BF00BF00BF1D
:104CA000002000900846006840F4001008600846A4
:104CB000006800F40010009000BF00BF0022052132
:104CC0000C20FDF77FFF0C20FDF76CFF0022052173
:104CD0002F20FDF777FF2F20FDF764FF002205212D
:104CE0003920FDF76FFF3920FDF75CFF0022052119
:104CF0003A20FDF767FF3A20FDF754FF0022052117
:104D00003B20FDF75FFF3B20FDF74CFF0022052114
:104D10004420FDF757FF4420FDF744FF0022052102
:104D20004520FDF74FFF4520FDF73CFF0022052100
:104D30004620FDF747FF4620FDF734FF08BD000081
:104D40003038024000B5ABB01C22244924A8FBF740
:104D50005CFC002124A804F06DFA214908601C22A3
:104D60001E491C311DA8FBF750FC00211DA804F0B2
:104D700061FA1C4908601C221849383116A8FBF753
:104D800044FC002116A804F055FA174908601C22BB
:104D9000124954310FA8FBF738FC00210FA804F08A
:104DA00049FA124908601C220C49703108A8FBF727
:104DB0002CFC002108A804F03DFA0D4908601C22D3
:104DC00006498C3101A8FBF720FC002101A804F062
:104DD00031FA084908602BB000BD000098D50008E2
:104DE0001400002004000020000000200800002023
:104DF000100000200C00002000B587B0142102A88C
:104E0000FBF75FFC00BF002001908948006840F07C
:104E10000200874908600846006800F0020001901F
:104E200000BF00BF00BF002001900846006840F0AE
:104E3000400008600846006800F04000019000BF94
:104E400000BF00BF002001900846006840F001004C
:104E500008600846006800F00100019000BF00BF34
:104E600000BF002001900846006840F0080008607C
:104E70000846006800F00800019000BF00BF00BFB6
:104E8000002001900846006840F0040008600846D1
:104E9000006800F00400019000BF00BF00BF0020C8
:104EA00001900846006840F4807008600846006879
:104EB00000F48070019000BF00BF00BF002001908F
:104EC0000846006840F0200008600846006800F0CE
:104ED0002000019000BF00BF00BF002001900846E5
:104EE000006840F0800008600846006800F080001C
:104EF000019000BF00BF00BF00200190084600687D
:104F000040F0100008600846006800F010000190B2
:104F100000BF00BF012240214648FDF7E7FB012208
:104F200010214548FDF7E2FB012241F2010143480F
:104F3000FDF7DCFB8020029000200390012004900C
:104F400002A93F48FDF7D2FA4020029001200390C9
:104F50000490059002A93748FDF7C8FA092002908D
:104F6000384803900120049002A93248FDF7BEFAA8
:104F70000720029000200390049002A93248FDF718
:104F8000B5FA01200290002003900120049002A9AC
:104F90002948FDF7ABFA10200290012003900490FD
:104FA0000220059002A92448FDF7A0FA30200290C3
:104FB000244803900120049002A92348FDF796FAA3
:104FC0004FF480500290012003900490059002A9B4
:104FD0001A48FDF78BFA01200290039004900220FA
:104FE000059002A91548FDF781FA0022062108461E
:104FF000FDF7E8FD0620FDF7D5FD0022052109207B
:10500000FDF7E0FD0920FDF7CDFD002205210A2076
:10501000FDF7D8FD0A20FDF7C5FD00220521172068
:10502000FDF7D0FD1720FDF7BDFD07B000BD000066
:1050300030380240001802400000024000040240E4
:1050400000200240000021100008024010B50B486B
:105050000B4908600B484860002109488160C16025
:105060004FF480410161002141618161C1610162B0
:10507000FDF748FB08B1FCF7A9F810BD005400404B
:1050800074090020801A060010B50B480B4908600F
:105090000B484860002109488160C1604FF480419D
:1050A0000161002141618161C1610162FDF72AFB5B
:1050B00008B1FCF78BF810BD00580040C80900206B
:1050C000801A060010B50B480B4908600B48486071
:1050D000002109488160C1604FF4804101610021D5
:1050E00041618161C1610162FDF70CFB08B1FCF710
:1050F0006DF810BD005C00401C0A0020801A0600FC
:1051000010B50548054908600846FEF7DFF908B103
:10511000FCF75CF810BD000000080650D00A002023
:1051200010B50A480A490860002048607C210848F8
:10513000816040F67F41C160002101614161816170
:10514000FEF7F8F908B1FCF741F810BD002800405F
:10515000E00A002010B50F480F4908604FF4827034
:10516000486000210C488160C16002210161012179
:105170004161490281613821C161002101624162BE
:1051800081620A21C162FEF77EFA08B1FCF71EF8BF
:1051900010BD000000300140000B002010B50F488A
:1051A0000F4908604FF48270486000210C4881600C
:1051B000C1600221016101214161490281613821FF
:1051C000C16100210162416281620A21C162FEF770
:1051D0005AFA08B1FBF7FAFF10BD00000038004092
:1051E000580B002000B587B01C216846FBF769FA10
:1051F0001548164908600020486000211348816066
:1052000041F28731C160002101618161FEF7FBFC41
:1052100008B1FBF7DBFF0D48FEF7B8FF08B1FBF75D
:10522000D5FF6020009000200190029004900022A1
:1052300069460648FEF726FF08B1FBF7C7FF03489B
:10524000FEF70EFE07B000BD00440140B00D002087
:1052500000B595B0002011901290139014900F900B
:1052600010901C2108A8FBF72CFA20216846FBF7B8
:1052700028FA384838490860A72048600021364895
:10528000816044F61F61C16000210161416181615B
:10529000FEF7B9FC08B1FBF799FF4FF4805011906D
:1052A00011A92D48FEF758FD08B1FBF78FFF2A48DA
:1052B000FEF76CFF08B1FBF789FF00200F901090FC
:1052C0000FA92548FEF775FC08B1FBF77FFF6020AA
:1052D00008904FF47A70099000200A900B900C907F
:1052E0000D900E90002208A91B48FEF7CBFE08B1D6
:1052F000FBF76CFF042208A91748FEF7C3FE08B1AC
:10530000FBF764FF082208A91348FEF7BBFE08B1AB
:10531000FBF75CFF0C2208A90F48FEF7B3FE08B1AB
:10532000FBF754FF0020009001900290039004903E
:105330004FF4005005900020079069460648FEF79C
:10534000FEFB08B1FBF742FF0348FEF789FD15B0ED
:1053500000BD000000000140700C002000B58DB0C1
:10536000002009900A900B900C90079008901C2147
:105370006846FBF7A6F920482049086000204860ED
:1053800000211E48816042F2CF01C160002101610D
:105390008161FEF738FC08B1FBF718FF4FF480502D
:1053A000099009A91548FEF7D7FC08B1FBF70EFFD5
:1053B0001248FEF7EBFE08B1FBF708FF002007904C
:1053C000089007A90D48FEF7F4FB08B1FBF7FEFEB5
:1053D000602000900020019002900490082269460D
:1053E0000648FEF74FFE08B1FBF7F0FE0348FEF754
:1053F00037FD0DB000BD000000040040B00C0020DF
:1054000000B58DB0002009900A900B900C90079089
:1054100008901C216846FBF754F920482049086091
:10542000A720486000211E4881604FF6FF71C160CF
:10543000002101618161FEF7E6FB08B1FBF7C6FEC2
:105440004FF48050099009A91548FEF785FC08B172
:10545000FBF7BCFE1248FEF799FE08B1FBF7B6FE5B
:1054600000200790089007A90D48FEF7A2FB08B19D
:10547000FBF7ACFE602000900020019002900490A9
:10548000082269460648FEF7FDFD08B1FBF79EFEBF
:105490000348FEF7E5FC0DB000BD00000008004029
:1054A000F00C002000B58DB0002009900A900B9000
:1054B0000C90079008901C216846FBF702F92848D9
:1054C00028490860002048600021264881604FF686
:1054D000FF71C160002101618161FEF794FB08B199
:1054E000FBF774FE4FF48050099009A91D48FEF7A0
:1054F00033FC08B1FBF76AFE1A48FEF747FE08B115
:10550000FBF764FE00200790089007A91548FEF7F6
:1055100050FB08B1FBF75AFE60200090002001907C
:1055200002900490002269460E48FEF7ABFD08B1D8
:10553000FBF74CFE042269460A48FEF7A3FD08B1BA
:10554000FBF744FE082269460648FEF79BFD08B1BA
:10555000FBF73CFE0348FEF783FC0DB000BD0000E6
:10556000000C0040300D002000B595B000201190D7
:105570001290139014900F9010901C2108A8FBF724
:10558000A0F820216846FBF79CF8304830490860B5
:10559000A720486000212E48816044F61F61C16049
:1055A0000021016141618161FEF72DFB08B1FBF72C
:1055B0000DFE4FF48050119011A92548FEF7CCFB49
:1055C00008B1FBF703FE2248FEF7E0FD08B1FBF748
:1055D000FDFD00200F9010900FA91D48FEF7E9FA7D
:1055E00008B1FBF7F3FD602008904FF47A70099042
:1055F00000200A900B900C900D900E90002208A9AC
:105600001348FEF73FFD08B1FBF7E0FD042208A9AF
:105610000F48FEF737FD08B1FBF7D8FD00200090DA
:1056200001900290039004904FF4005005900020E8
:10563000079069460648FEF782FA08B1FBF7C6FDF7
:105640000348FEF70DFC15B000BD0000000401404A
:10565000700D002010B50B480B4908604FF4E13085
:105660004860002108488160C16001610C214161EE
:1056700000218161C161FEF74BFE08B1FBF7A6FD79
:1056800010BD000000100140F00D002010B50B48C7
:105690000B4908600B484860002109488160C160DF
:1056A0004FF4806101610C21416100218161C16180
:1056B000FEF72EFE08B1FBF789FD10BD0048004043
:1056C000300E0020A086010010B50B480B49086081
:1056D0004FF4E1304860002108488160C1600161F9
:1056E0000C21416100218161C161FEF711FE08B109
:1056F000FBF76CFD10BD000000140140700E00208F
:1057000010B52DED108B0446F0EE408AB0EE609A95
:10571000F0EE419AB0EE61BAB0EE42AAF0EE62AAA3
:10572000B5EEC0BAF1EE10FA09D1B5EEC0AAF1EEAD
:1057300010FA04D1F5EEC0AAF1EE10FA7DD06BEEAE
:105740000B0A4AEE0A0A4AEEAA0AB0EE600A03F011
:10575000A5FCB0EE408AB0EE480A2BEE000AB0EE8F
:1057600040BAB0EE480A2AEE000AB0EE40AAB0EE07
:10577000480A2AEE800AF0EE40AA94ED010AD4ED20
:10578000030A20EE200AD4ED000A94ED021AB0EECE
:1057900040DA00EEC1DA94ED000AD4ED010A20EE01
:1057A000200AD4ED020A94ED031AF0EE40DA40EE3E
:1057B00081DAD4ED000A94ED001AB6EE000A10EE7C
:1057C000810AD4ED030A94ED031AB0EE40EA00EE2C
:1057D00081EA2AEE0E0AF0EE40EA4AEEEDEA2AEEFF
:1057E0008D0AB0EE40FA0BEE4EFA2BEE2D0AF0EEDB
:1057F00040FA4AEE4DFA7C4890ED000AB5EEC00A38
:10580000F1EE10FA40DD90ED000A60EE2E0A7748C6
:1058100090ED000A9FED761A00EE810A80ED000AF5
:10582000714890ED000A60EE0F0A724890ED000A90
:105830009FED6F1A00EE810A00E04DE080ED000A56
:10584000694890ED000A60EE2F0A6B4890ED000A5F
:105850009FED671A00EE810A80ED000A634890ED23
:10586000000A38EE800AF0EE408A624890ED000AA5
:1058700039EE000AB0EE409A5F4890ED000A39EE2A
:10588000800AF0EE409A0EE09FED5C0A574880EDEA
:10589000000A9FED5A0A574880ED000A9FED570A0B
:1058A000554880ED000A5648D0ED000AB0EE680A6F
:1058B00000EEAE0AF0EE408AD0ED000AB0EE490AE2
:1058C00000EE8F0AB0EE409AD0ED000AB0EE690A01
:1058D00000EEAF0AF0EE409A9FED4A0A28EE800AE9
:1058E000F0EE408A9FED470A29EE000AB0EE409A9A
:1058F0009FED440A29EE800AF0EE409AD4ED00BAFA
:1059000094ED01CAD4ED02CAB1EE4C0A20EE280A89
:105910000CEEC90AD4ED030A00EEE90AD4ED000A40
:1059200030EE200A84ED000A2BEEA80A0CEEA90A3C
:10593000D4ED030A00EEC90AD4ED010A30EE200AC4
:1059400084ED010A2BEE890A0CEE690AD4ED030AF4
:1059500000EEA80AD4ED020A30EE200A84ED020A15
:105960002BEEA90A0CEE090A0CEEE80AD4ED030AA4
:1059700030EE200A84ED030AD4ED000A60EEA00A9E
:1059800094ED011AD4ED011A41EE210A94ED021AA8
:10599000D4ED021A41EE210A94ED031AD4ED031A54
:1059A00041EE210AB0EE600A03F078FBB0EE408AC7
:1059B00094ED000A20EE080A84ED000A94ED010A35
:1059C00020EE080A84ED010A94ED020A20EE080A8E
:1059D00084ED020A94ED030A20EE080A84ED030A1E
:1059E000BDEC108B10BD00005401002058010020B8
:1059F0006F12833A5C01002060010020000000006B
:105A0000500100206F12033A00BFFEE700BFFEE71F
:105A1000B0EE401A10B99FED790A704790ED110A67
:105A200080ED120A90ED100A80ED110AC0ED060A11
:105A300080ED071A30EEC10A80ED100A01780029C6
:105A400075D190ED010AD0ED101A20EE210A80EDFB
:105A50000A0A90ED0B0AD0ED021A90ED102A01EE21
:105A6000820A80ED0B0A90ED0E0A80ED0F0A90ED90
:105A70000D0A80ED0E0A90ED100AD0ED111A30EEED
:105A8000610A80ED0D0A90ED030AD0ED0D1A20EEAB
:105A9000210A80ED0C0A90ED0B0AD0ED051AB4EE48
:105AA000E10AF1EE10FA04DD90ED050A80ED0B0A33
:105AB00010E090ED0B0AD0ED051AF1EE611AB4EE8C
:105AC000E10AF1EE10FA05D290ED050AB1EE400AB6
:105AD00080ED0B0A90ED0A0AD0ED0B1A30EE210A88
